{
  "_format": "hh-sol-artifact-1",
  "contractName": "PaginationApp",
  "sourceName": "contracts/PaginationApp.sol",
  "abi": [
    {
      "inputs": [],
      "name": "InvalidPageSize",
      "type": "error"
    },
    {
      "inputs": [
        {
          "internalType": "uint256",
          "name": "appointmentTime",
          "type": "uint256"
        }
      ],
      "name": "bookAppointment",
      "outputs": [],
      "stateMutability": "nonpayable",
      "type": "function"
    },
    {
      "inputs": [],
      "name": "clientIdCount",
      "outputs": [
        {
          "internalType": "uint256",
          "name": "",
          "type": "uint256"
        }
      ],
      "stateMutability": "view",
      "type": "function"
    },
    {
      "inputs": [
        {
          "internalType": "uint256",
          "name": "pageOffset",
          "type": "uint256"
        },
        {
          "internalType": "uint256",
          "name": "pageSize",
          "type": "uint256"
        }
      ],
      "name": "fetchAppointment",
      "outputs": [
        {
          "components": [
            {
              "internalType": "uint256",
              "name": "clientId",
              "type": "uint256"
            },
            {
              "internalType": "address",
              "name": "client",
              "type": "address"
            },
            {
              "internalType": "uint256",
              "name": "appointmentTime",
              "type": "uint256"
            },
            {
              "internalType": "bool",
              "name": "confirm",
              "type": "bool"
            }
          ],
          "internalType": "struct PaginationApp.Appointment[]",
          "name": "",
          "type": "tuple[]"
        }
      ],
      "stateMutability": "nonpayable",
      "type": "function"
    },
    {
      "inputs": [],
      "name": "getAppointment",
      "outputs": [
        {
          "components": [
            {
              "internalType": "uint256",
              "name": "clientId",
              "type": "uint256"
            },
            {
              "internalType": "address",
              "name": "client",
              "type": "address"
            },
            {
              "internalType": "uint256",
              "name": "appointmentTime",
              "type": "uint256"
            },
            {
              "internalType": "bool",
              "name": "confirm",
              "type": "bool"
            }
          ],
          "internalType": "struct PaginationApp.Appointment[]",
          "name": "",
          "type": "tuple[]"
        }
      ],
      "stateMutability": "view",
      "type": "function"
    }
  ],
  "bytecode": "0x60806040526001600055348015601457600080fd5b50610826806100246000396000f3fe608060405234801561001057600080fd5b506004361061004c5760003560e01c806349fe1dd6146100515780635930ec061461006f5780637df1ad7f1461008d578063c645e739146100bd575b600080fd5b6100596100d9565b6040516100669190610645565b60405180910390f35b6100776101bd565b6040516100849190610676565b60405180910390f35b6100a760048036038101906100a291906106c2565b6101c3565b6040516100b49190610645565b60405180910390f35b6100d760048036038101906100d29190610702565b61038c565b005b60606001805480602002602001604051908101604052809291908181526020016000905b828210156101b45783829060005260206000209060040201604051806080016040529081600082015481526020016001820160009054906101000a900473ffffffffffffffffffffffffffffffffffffffff1673ffffffffffffffffffffffffffffffffffffffff1673ffffffffffffffffffffffffffffffffffffffff168152602001600282015481526020016003820160009054906101000a900460ff161515151581525050815260200190600101906100fd565b50505050905090565b60005481565b606060006001805490509050600083856101dd919061075e565b905081811115610219576040517fe5b7db2e00000000000000000000000000000000000000000000000000000000815260040160405180910390fd5b6000600185610228919061075e565b905060008167ffffffffffffffff81111561024657610245610792565b5b60405190808252806020026020018201604052801561027f57816020015b61026c61048c565b8152602001906001900390816102645790505b5090506000808890505b8381101561037d57600181815481106102a5576102a46107c1565b5b9060005260206000209060040201604051806080016040529081600082015481526020016001820160009054906101000a900473ffffffffffffffffffffffffffffffffffffffff1673ffffffffffffffffffffffffffffffffffffffff1673ffffffffffffffffffffffffffffffffffffffff168152602001600282015481526020016003820160009054906101000a900460ff161515151581525050838381518110610356576103556107c1565b5b602002602001018190525060018261036e919061075e565b91508080600101915050610289565b50819550505050505092915050565b6001604051806080016040528060005481526020013373ffffffffffffffffffffffffffffffffffffffff1681526020018381526020016000151581525090806001815401808255809150506001900390600052602060002090600402016000909190919091506000820151816000015560208201518160010160006101000a81548173ffffffffffffffffffffffffffffffffffffffff021916908373ffffffffffffffffffffffffffffffffffffffff1602179055506040820151816002015560608201518160030160006101000a81548160ff02191690831515021790555050506001600080828254610482919061075e565b9250508190555050565b604051806080016040528060008152602001600073ffffffffffffffffffffffffffffffffffffffff168152602001600081526020016000151581525090565b600081519050919050565b600082825260208201905092915050565b6000819050602082019050919050565b6000819050919050565b61050b816104f8565b82525050565b600073ffffffffffffffffffffffffffffffffffffffff82169050919050565b600061053c82610511565b9050919050565b61054c81610531565b82525050565b60008115159050919050565b61056781610552565b82525050565b6080820160008201516105836000850182610502565b5060208201516105966020850182610543565b5060408201516105a96040850182610502565b5060608201516105bc606085018261055e565b50505050565b60006105ce838361056d565b60808301905092915050565b6000602082019050919050565b60006105f2826104cc565b6105fc81856104d7565b9350610607836104e8565b8060005b8381101561063857815161061f88826105c2565b975061062a836105da565b92505060018101905061060b565b5085935050505092915050565b6000602082019050818103600083015261065f81846105e7565b905092915050565b610670816104f8565b82525050565b600060208201905061068b6000830184610667565b92915050565b600080fd5b61069f816104f8565b81146106aa57600080fd5b50565b6000813590506106bc81610696565b92915050565b600080604083850312156106d9576106d8610691565b5b60006106e7858286016106ad565b92505060206106f8858286016106ad565b9150509250929050565b60006020828403121561071857610717610691565b5b6000610726848285016106ad565b91505092915050565b7f4e487b7100000000000000000000000000000000000000000000000000000000600052601160045260246000fd5b6000610769826104f8565b9150610774836104f8565b925082820190508082111561078c5761078b61072f565b5b92915050565b7f4e487b7100000000000000000000000000000000000000000000000000000000600052604160045260246000fd5b7f4e487b7100000000000000000000000000000000000000000000000000000000600052603260045260246000fdfea2646970667358221220b22ca0c0da26865d7f575d3bb93d069fab638f02e8191f8e415b7303336a92ae64736f6c634300081b0033",
  "linkReferences": {},
  "deployedLinkReferences": {}
}